{"abi":[{"type":"constructor","inputs":[{"name":"usdc_","type":"address","internalType":"address"}],"stateMutability":"nonpayable"},{"type":"function","name":"openPosition","inputs":[{"name":"market","type":"string","internalType":"string"},{"name":"margin","type":"uint256","internalType":"uint256"},{"name":"leverage","type":"uint256","internalType":"uint256"},{"name":"direction","type":"uint8","internalType":"uint8"}],"outputs":[],"stateMutability":"nonpayable"},{"type":"function","name":"usdc","inputs":[],"outputs":[{"name":"","type":"address","internalType":"contract IERC20"}],"stateMutability":"view"},{"type":"event","name":"PositionOpened","inputs":[{"name":"user","type":"address","indexed":true,"internalType":"address"},{"name":"market","type":"string","indexed":false,"internalType":"string"},{"name":"margin","type":"uint256","indexed":false,"internalType":"uint256"},{"name":"leverage","type":"uint256","indexed":false,"internalType":"uint256"},{"name":"direction","type":"uint8","indexed":false,"internalType":"uint8"}],"anonymous":false}],"bytecode":{"object":"0x60a060405234801561000f575f80fd5b506040516103ed3803806103ed83398101604081905261002e9161003f565b6001600160a01b031660805261006c565b5f6020828403121561004f575f80fd5b81516001600160a01b0381168114610065575f80fd5b9392505050565b60805161036361008a5f395f8181603d015261013201526103635ff3fe608060405234801561000f575f80fd5b5060043610610034575f3560e01c80633e413bee1461003857806362ca5bfd1461007b575b5f80fd5b61005f7f000000000000000000000000000000000000000000000000000000000000000081565b6040516001600160a01b03909116815260200160405180910390f35b61008e61008936600461022b565b610090565b005b60028160ff16106100d85760405162461bcd60e51b815260206004820152600d60248201526c3130b2103234b932b1ba34b7b760991b60448201526064015b60405180910390fd5b5f83116101105760405162461bcd60e51b815260206004820152600660248201526536b0b933b4b760d11b60448201526064016100cf565b6040516323b872dd60e01b8152336004820152306024820152604481018490527f00000000000000000000000000000000000000000000000000000000000000006001600160a01b0316906323b872dd906064016020604051808303815f875af1158015610180573d5f803e3d5ffd5b505050506040513d601f19601f820116820180604052508101906101a491906102bf565b6101db5760405162461bcd60e51b81526020600482015260086024820152673a3930b739b332b960c11b60448201526064016100cf565b336001600160a01b03167f3af77cc152883a6c575f8ba899dd845aa2c7b62ff35eb9f3f3236f66cda4bce4868686868660405161021c9594939291906102e5565b60405180910390a25050505050565b5f805f805f6080868803121561023f575f80fd5b853567ffffffffffffffff80821115610256575f80fd5b818801915088601f830112610269575f80fd5b813581811115610277575f80fd5b896020828501011115610288575f80fd5b60209283019750955050860135925060408601359150606086013560ff811681146102b1575f80fd5b809150509295509295909350565b5f602082840312156102cf575f80fd5b815180151581146102de575f80fd5b9392505050565b60808152846080820152848660a08301375f60a086830101525f60a0601f19601f880116830101905084602083015283604083015260ff83166060830152969550505050505056fea2646970667358221220e4d01ac9fd865f21c8a0d97d7ba3790db98ddf92876c8e183f9ac05bcd04868864736f6c63430008180033","linkReferences":{}},"methodIdentifiers":{"openPosition(string,uint256,uint256,uint8)":"62ca5bfd","usdc()":"3e413bee"},"id":0}